:020000020000FC
:100000000C9452000C9446000C9446000C9446004C
:100010000C9446000C9446000C9446000C94460048
:100020000C94C20A0C9446000C9446000C944600B2
:100030000C9446000C9446000C9446000C94460028
:100040000C9446000C9446000C9435090C94580905
:100050000C949C0A0C94720A0C9446000C94460072
:100060000C9446000C9446000C94290A0C9446000B
:100070000C94AD0A0C94870A0C9446000C9446002C
:100080000C9446000C9446000C9446001895FFFF13
:10009000FFFFFFFFFFFFFFFFFFFFFFFFFFFFFFFF70
:1000A000680C0A0DF894A89508E00EBF0FEF0DBF7D
:1000B000112713BF0AE5009364000CE50CBD81E035
:1000C0001E9B0C94013E70E880E090E012D69CD517
:1000D000C0D5C0E0D1E00EEF112719930A95E9F7DA
:1000E000BB24CC246624992401E0702EDD24EE2468
:1000F00000E8009373010FEF009352010093780121
:10010000CCE3D1E00AE010E009931993E0E4FEE7C4
:1001100005911491099319930DE010E00993199337
:10012000EEECF8E10591149100951095039509F412
:10013000139509931993AA2488240E94DF0A7894BE
:10014000FAD4A89586FD2AD785FD0E94CA0883FDAA
:1001500057D781FD93D394FDDBD382FD0AC077FF8F
:100160008895000000004F9B5D9A76FFE0D482FFE7
:10017000E8CF8B7FC0917D01D0917C01CD17A1F09C
:10018000D2E00991C068C0937D0191FD09C00023B0
:1001900081F39F7944245524332021F445D0E9CFBD
:1001A00028D3E7CF14D0E5CFC0918101D091800151
:1001B000CD1739F2D3E00991C068C093810190FF57
:1001C000C0CF003210F40A3009F48FD4BACF003215
:1001D00020F40B3161F133245FC0003300F10A33A6
:1001E00070F00F33E0F039F00F9306D20F9105FD58
:1001F0001EC033240895330C0894379408950F706B
:10020000C4E8D1E0C30DC30DE991F8811AE0F19F74
:10021000F02DE19F000EF11DF8830A920895032D41
:100220000A3038F7339408950032B0F1D2C0C6E8EE
:10023000D1E033243992CA39E9F733940895C09351
:100240006C010027CFEF74FC07C077FC04C00FEFF0
:1002500076FCCC2701C0C1E000936D01C0936E0114
:10026000D09369010895CC27C0936901C0936A01B6
:10027000C0936801B4D1043011F3C0936B010895A9
:100280000FEB7022089500E4702A089500E8702AA8
:1002900008950FE7702208950B3149F20D3031F1C6
:1002A0000930C9F10A30F9F10B30D1F00130D9F23F
:1002B000023001F1033059F10430A9F20E3001F39C
:1002C0000F3009F3023111F3043119F3083009F446
:1002D0004FC00C3009F008956624C0E0D4E03BD054
:1002E000002700936F010093700108950027009389
:1002F0006F01089504E1902E2B9B299B0895002700
:10030000F8940093710100937201789408959924F0
:1003100001E0A02E089500916F0106FD04C002E4E3
:1003200000936F010895002700936F010091700101
:100330000873085F0034B8F2EF93FF93C0E0D4E095
:10034000E0E8F4E0A8950191099301910993F83050
:10035000D0F3FF91EF910027C0936901C0936A0128
:10036000A8950993099309930993D830D0F3089578
:100370001F93C0916F01D0917001D87316E0C1171F
:1003800078F4CC2361F4D850C8F0D0937001CA5FE0
:10039000F2F7C03811F0C65003C0D85F01C01C2F5F
:1003A000D695D695D695CC0FD695C795DC5F002708
:1003B0000A931A95E9F7CF77C0936F011F910895BB
:1003C0000F93029501D00F910F7000630A3308F06C
:1003D000095FBB24C0916F01CA3720F00F93A3DFE0
:1003E0000F91CC27D0917001D695D695D695CC0F8C
:1003F000D695C795DC5F1F932F933F93EF93FF93A1
:1004000070FE17C00F93E6E1F7E1332715912591B0
:10041000222371F0011B60F0021718F0320F010F58
:10042000F5CF030F3F91159125912223E1F704C0E9
:100430000F91E0E0FCE6005216E0019FE00DF11D97
:10044000059177FC016076FC009509931A95C1F738
:10045000CF77C0936F01FF91EF913F912F911F9143
:1004600008950881602E0023D9F3032D0230C0F3D4
:100470001FE7062D0370000F011B01952E813885A3
:10048000332309F43FE30F933CD00F912A813C8141
:10049000321730F31FE711C000916F0120917001F6
:1004A00018813A817ED03FC000916F012091700188
:1004B00018813A814C81413020F173D084D013955A
:1004C00033950FEF222321F0069533952A95E1F716
:1004D0002FEF385018F4220F3395E9F70223EF93EA
:1004E000212FF080F02AF082E10D2A95D1F7EF91CB
:1004F00020E8E20F08F4F3950FEF332349F7BB240C
:1005000008954FD011201AF413941394011B412F16
:10051000112709D0040F07D0142F041B432F3327B2
:1005200002D0240F00C00F931F932F933F934BD003
:1005300023950027089407952A95E9F71317D8F013
:10054000212F2695012E0394F080F02AF082E10DF0
:10055000231B48F4210F069530F400E8E00F18F44F
:10056000F395F83010F40A9479F73F912F911F9189
:100570000F91BB240895232F2695032E0394F0801A
:10058000F02AF082211B10F4230FE10D069530F4C0
:1005900000E8E00F18F4F395F83038F70A9479F78B
:1005A000E4CF112413942F733F73321B28F41F934D
:1005B000102F0F913195231B0F771F77101B10F40D
:1005C000119411950895F22F2770F695F695F695EA
:1005D000F770E02FEE0FF695E795FC5F0895C09158
:1005E0006F01D0917001D695D695D695D770CC0F66
:1005F000D695C795DC5F08950F750154E0F30A3175
:10060000D0F7E6E0E09FE6E2F6E0E00DF11DC591EF
:10061000D5913C1680F337FC32960591F491E02F8A
:10062000C6E8D1E0099404009A03A70401008503F9
:1006300030040000C6036904FFFFFB02FB02020056
:1006400078033E040100810337040100830335046D
:10065000FFFFFB02FB020100D4037504FFFFFB0256
:10066000FB02FFFFFB02FB0201006B034C04FFFFD8
:10067000FB02FB02FFFFFB02FB02FFFFFB02FB0290
:1006800002009403810402004C02FB0203005402A6
:10069000FB0201003102FB020700AB03BB040100B7
:1006A0006103FB020000FB02EF04FFFFFB02FB0201
:1006B0000100BC0359040100C1036104FFFFFB02F8
:1006C000FB0209910736E1F408810231C9F4F8947C
:1006D00081E00C94013E099100935D010991009322
:1006E0005E01032D023060F0088100935F010895E0
:1006F0000881009377010A81002311F000937801AB
:10070000089578800895976004C09A600027009348
:100710008301099100938401188117781093850152
:10072000012B09F4917F089508811A811095101307
:10073000089513C208810DD600935C010A8109D681
:1007400000935B010C8105D600935A010E8101D6FE
:10075000009359010895E2E5F1E00C8501930A85C3
:100760000193088501930A810193088101930C810B
:1007700001930E810193089508810F7700936F0113
:10078000089508810F73009370010895032D0023CD
:1007900051F0E0E0F1E019911193199111930A954C
:1007A00011F0EC30C1F7EFC6E6E1F1E009911991E3
:1007B000093008F7000F000FE00F03E0301648F093
:1007C0000991019319911193099101931991119331
:1007D00008951FE06AD178F2EF93FF93E651E69512
:1007E00031D17DD1FF91EF9123D179D121D109E48C
:1007F00069C192FF02C08AD123C0D0918501D7FF81
:1008000010C010918301112331F042F4CC27C09322
:1008100083011F5707C00093830112C01A951093DC
:10082000830111E0DCDE0993CF77C0936F0131F4CF
:10083000D0917001D85FD873D09370011A9591F759
:10084000C0918401D09185012197C0938401D093F8
:100850008501D770DC2B19F493FDBB24917F08959B
:10086000002700938201906108959E7F089515E00E
:100870001CD1D0F3072DE6D006E424C119E015D130
:1008800098F38D7FE091770128D1E091740100EC1D
:10089000E027D8D005E416C11BE007D128F3E0918A
:1008A0005D01F0915E011AD1E0915F01CBD00CE4C3
:1008B00009C115E0FAD0C0F2E0916F01C3D008E59C
:1008C00001C115E0F2D080F2E0917001BBD009E5E2
:1008D000F9C015E2EAD0D0F1E0E0F1E001C0FFD0CC
:1008E000A7D0EC30E1F703E4EDC017E3DED070F100
:1008F000EAE9F1E001C0F3D09BD0EC3AE1F709E47A
:10090000E1C015E0D2D010F1E72F9CD000E5DAC0AD
:1009100017E4CBD0D8F006E3D5D004E3D3D0DFD0B2
:10092000E091820110E41E9F8DD002E4CBD0E02D37
:10093000F4E0F10D0191C6D01A95E1F70091820122
:10094000039500938201003108F09F7E08951DE019
:10095000ACD0E0F3E091510150D0C1D0E091500112
:100960004CD0BDD0E0914F0148D0B9D0E0914E01BC
:1009700044D001E4A7C019E198D040F3E0914B01C5
:10098000E7703DD0B0D0E0914A0139D0A4D0E091D9
:100990004C0135D0A0D0E0914D0131D0A4D0E091F0
:1009A00049012DD09ED0E091480129D09AD0E09104
:1009B0004701EF7724D097D0E1E04E9BE4600091AF
:1009C000460102FDE2600091470107FD04C000916D
:1009D0004C01002309F4EE7F35D004E573C013E128
:1009E00064D080F0ECE3F1E023D079D021D077D04F
:1009F0001FD075D01DD006E565C0E7FDE9E903D03D
:100A0000C0937A010895E295EA3918F4E295EA393B
:100A100018F0EDE2E99309C0EF93E29501D0EF9170
:100A2000EF70E063EA3308F0E95FE993CF77089568
:100A300001911191EF93FF93E02FF12F04D0FF91DB
:100A4000EF910895FF271F93112707D0C0937A01D4
:100A50001F910895FF270FEF11C00FEF112311F41D
:100A6000FF2361F00395E051F742E0F717D0065FEE
:100A70000A95E851FC4FE0F311D00A950395E4562E
:100A8000F040E0F70BD0065F0A95E65FE8F306D08A
:100A90000E2F00630993CF7700E308950023C9F771
:100AA000112311F01993CF770895D2E0C0917A0104
:100AB00000917B010C1B09F008F400580A950117FE
:100AC00048F00BE10993CF77C0937A0108EB76FDEC
:100AD0000093C10008950FE2F5CFFF27B4DF0CE2C9
:100AE000F1CF0AE3EFCF00E2EDCF76FF0895D2E039
:100AF000C0917A010993CF7700917B01C01711F063
:100B0000C0937A0108EB0093C100089571FF089526
:100B1000D3E0C0917E010993CF7700917F01C01788
:100B200011F0C0937E0108EB0093C900089587FF80
:100B30004E9B01C0089500E000935D0100E3009327
:100B40005E0104E600935F0106D0C6DB6FD19062C0
:100B500050927701089500EC072B202F27FF20707B
:100B600026FF2378122F172717FF02C027FDC1D0B9
:100B700016FD27D024FD03C044987F7E02C0449A0E
:100B8000706125FD03C045987F7D02C0459A706263
:100B900022FD03C042987B7F01C0746023FD03C027
:100BA0004398777F01C0786011FD6FD027FF04C0A4
:100BB00020FF03C0716008957F77BB24BA947E7FC5
:100BC000089526FF21C046982DD0009164000D7F26
:100BD000009364002F932FB7F8940091C60000E0B3
:100BE0000093C5000CE00093C40002E00093C00035
:100BF00006E00093C20008E90093C1000091C6001E
:100C00002FBF2F9170640895449845984298439857
:100C1000469A737800E00093C1000091640002607E
:100C2000009364002F932FB7F89400910000009375
:100C30007A0100937B010091800000937C01009376
:100C40007D012FBF2F9133244424552490788F7732
:100C5000089500E00093C9005C987D7F00916400D6
:100C60000061009364002F932FB7F8940091000067
:100C700000937E0100937F0100918000009380012A
:100C8000009381012FBF2F91089521FFE2CFEBDF69
:100C9000009164000F7E009364002F932FB7F894A7
:100CA0000091CE0000E00093CD000DE40093CC0055
:100CB00000E00093C80006E00093CA0008E9009332
:100CC000C9005C9A72600091CE002FBF2F910895E9
:100CD0000091610002FD08950F932F932FB7F894B0
:100CE00000E80093610004E0009361001BED09EE51
:100CF0000EC00F932F935D9A70682FB7F89400E899
:100D0000009361000027009361001AE50AEB10933D
:100D1000640013E214BD1BE015BD112716BD07BD0D
:100D200018BD01E000936E002FBF2F910F91089521
:100D3000E6E1F1E0CAE9D1E04A895B89219131918C
:100D4000539F8001439F322F2227010D121F539F73
:100D5000010D121F21913191021B130B10F400277A
:100D6000112709931993CC3A39F700919A01109100
:100D70009B01209102013091030102171307B8F083
:100D800073FF09C020910801309109010217130770
:100D900010F4439A01C0439872FF0AC020910401E5
:100DA000309105010217130718F4429A08954398E9
:100DB0004298089520917901309177013323B1F35E
:100DC0003151F0F73F5E321738F007E0020F03179A
:100DD00030F4232F275001C0232F2093790133951E
:100DE000321BE4EFF6E1220FE20F08F4F39502E084
:100DF0001BDA28E00CE018DA3A9511F40FE014DA67
:100E000005911591EF93FF932F933F93E02FF12FCF
:100E100024D03F912F91FF91EF91E63111F4E4EF4F
:100E2000F6E10AE02A9539F703E0FEC9E0E0F4E6CE
:100E30000591159100938401109385011F7715305A
:100E400058F4102B49F09860002700938301A8956F
:100E50000591D3DC93FDFCCF08950591002381F02B
:100E6000003149F45591C591D1E0EF93FF9309D03A
:100E7000FF91EF91F2CF093009F47724D5D9EDCF66
:100E80000895503208F466C0EC2FFD2FC1E3D8E07E
:100E9000F9F05232E0F109F447C001910F9301914A
:100EA0000F93019110D00EE294DA00E292DA0F91E2
:100EB0000AD00AE38EDA0F9106D000E28ADA0191B5
:100EC000073018F433C007FF3BC000D00DE281CAE1
:100ED00001910F9301910F93008132D00AE379DAE7
:100EE0000F912ED00AE375DA0F910F930F7728D068
:100EF00000E26FDA1F9100E217FD09E46ADA00E20E
:100F00004E9B01E41091460112FD02E462CA019178
:100F100017D00EE25EDAE395019112D00EE259DAB3
:100F200000E20ED001910CC001910770000FE0E0CB
:100F3000F6E11127E00FF11F05914BDA059149CA3F
:100F40000F93029501D00F910F7000630A3308F0E0
:100F5000095F3FCAE991F881C1E3D8E05131A1F0BE
:100F600078F010E37ADD50913108503319F410E233
:100F70001093310852E00BD00CE22BDA53E009C099
:100F800010E368DD53E003C010E267DD55E0E1E304
:100F9000F8E001911EDA5A95E1F708958F7B0091F0
:100FA000750120917401122F102749F100937401EB
:100FB00017FF03C0826007FD8068107301F1207382
:100FC00031F0007309F022272093760118C0209198
:100FD00076012223A1F0202391F400710091770182
:100FE0001091780129F00395101730F4002704C000
:100FF0000A95101708F4012F009377018260089575
:101000002B9B0895877F289AAA9409F049C002E48F
:10101000A02E992009F09A94C0E0D8E00091060132
:101020000B1540F47E7F10988F7E0EEA099377FFB0
:101030004FDE2FC00091680103950093680175FE93
:10104000069501FF04C00091690100936A0184FFC5
:1010500006C0109A716012E6EAE6F2E106C05D9AF7
:10106000706880611AE3EAE6F2E13197049109932E
:10107000E117D9F70091730110910601B11638F00C
:10108000139529F0182D1095011708F0012F0093E2
:101090000008F894C0937101D09372017894089578
:1010A000A0FE08950FE10A1988F4009152010C3353
:1010B00008F463C100915B01002309F094C176FD3F
:1010C0004E99089595FF96FD089555C1069569F0CE
:1010D000069508F447C0C02FCC0FC255D1E010913F
:1010E00078001993109179001883073028F403953C
:1010F000006A00937C00015A015050F069F00250E0
:1011000068F0B1F0025018F119F1025010F1089591
:101110002BE919EA00E08AC102E083C100912008AE
:10112000109121080093AC011093AD0101E079C149
:101130000091200810912108000F111F000F111FAE
:101140000093AE011093AF0128E919E2E3CF62C129
:1011500063C1CEE2D8E0E4E4F1E00A910193C03249
:10116000E1F70895073020F407EC00937A00089522
:10117000DFDD95FF089596FD1DCEC42D152D169526
:10118000C795C695C060D5E008810B7F10FF04604D
:10119000088308958F7D839419F4B39409F4BA9465
:1011A000439469F497FF03C09F77C5DC13C006E042
:1011B000051508F49064539411F44A945A9476FFF8
:1011C00009C000910001109101010415150511F4E9
:1011D0001BDD906877FD09C0082D000F20F10595F3
:1011E00005950AF00095055123C0C3E6D1E00091B2
:1011F0005D0110915E010095109528E037E03023E5
:10120000322B3993169507951695079516950795E0
:10121000220FC83699F700915F01002377FD31F462
:10122000082D000F10F40FEF05C00AF000950454CC
:1012300008F40027009362010895AEEED5A0A83F00
:1012400040E3AD8ED805A1E3DA12913F3F3F3FE383
:10125000D9D2DB34A4A62000220007210483D300C6
:10126000E3AFE3B01004828081802FB66091620109
:1012700068BD2B9B1BC02A986EB56CED6CBD77FDCD
:1012800003C0806263E811C0CF93DF93C091610116
:10129000C39511F48062CCEEC0936101CB5FF0F393
:1012A000CD59D1E06881DF91CF916EBD2FBE1895E9
:1012B0002FB6A0917101B09172012A9B2AC06FE7ED
:1012C0006A23C9F060916A016B1337C05F936E9116
:1012D00050916C01A51768F450916B015A1718F0E2
:1012E000552750936A0150916D01652B50916E0105
:1012F00065275F9123C0AA2329F4B53018F4BB27D2
:10130000B09372016CE56CBD2B9A299A88602FBE50
:1013100018956EB52A9A60937501BF93B0917401C8
:10132000B6138064BF91B43068F3B83010F0AA23CC
:1013300019F4992011F0E6CF29986E912B98A0937B
:101340007101B09372016EBD2FBE189506D009933E
:1013500008950C3310F001E808951F9310EF105F0B
:101360000A50E8F7065F010F1F910895C0E2D8E028
:10137000DD24EE240895FADF2CC0F8DF109152012D
:101380000FEF0093520100915801043670F7DEDF31
:1013900000915701002349F30D3038F7D7DF009152
:1013A0005601073010F70993009155010023E9F227
:1013B0000032D8F6CBDF009154010831B0F6C6DF19
:1013C000009153010C3388F6C1DF012F0C3368F60E
:1013D000BDDF00E0099300E0099302E009930027D4
:1013E000099300ED28C0C2DF08E3099300910A01C8
:1013F000099300915C01099300915B0109930091AD
:101400005A010993009159010993002700935B0148
:101410000AE0E6CFABDFE3CFA9DF1EE0E12E00ED6F
:101420000AC0A4DF099312E0E12E04C09FDF2993D4
:101430001993099300E800933008C052DC2E00E0B5
:101440000093B90004E30093B80005EA0093BC00E0
:1014500008952FB66091B900687F683189F16832CC
:1014600079F1603431F16035D9F06835C9F0603117
:1014700011F0683099F460913008DD2061F56395D2
:10148000EE2061F06F930F936E2DA0E2B8E000277D
:101490000D936A95E9F70F916F911DC065E91EC024
:1014A0006091BB00EE20D1F3EA94A0E2B8E0AE0D6B
:1014B0006C936E2D613090F365EC81F465E80EC09D
:1014C000DD2021F4EE2051F365EA08C0DA94A0E2B1
:1014D000B8E0AD0D6C916093BB0065E86093BC0013
:1014E0002FBE18952FB6A0917B01B0917A01AB1752
:1014F00049F0B2E06D916093C600AF77A0937B0195
:101500002FBE189568E96093C1002FBE18952FB6BD
:10151000A0917F01B0917E01AB1749F0B3E06D91CE
:101520006093CE00AF77A0937F012FBE189568E936
:101530006093C9002FBE18952FB66091C600A09188
:101540007C01B2E06D93A068B0917D01AB1719F0FA
:10155000A0937C0184602FBE18952FB66091CE00B9
:10156000603210F46A3061F4A0918001B3E06D93B1
:10157000A068B0918101AB1719F0A093800184603D
:101580002FBE189518953F931BE3D1E0C0E004E00F
:10159000F999FECFA89533273FBB32BD01BDF89A1C
:1015A000399120B5321731F030BD3FB7F894FA9A2F
:1015B000F99A3FBF03951A9559F73F910895A89559
:1015C0001BE3D1E0C0E004E0F999FECF22272FBB56
:1015D00022BD01BDF89A039520B529931A95A1F76C
:1015E00000913A01013059F01F931BE3D1E0C0E0B4
:1015F000F8E1E2E9059109931A95E1F71F91089541
:1016000053554D4F545557455448465253415355E1
:1016100054494D453A0E201020470000444154459E
:101620003A0E2010214A2010224B0000414C41521A
:101630004D3A0E10234E0000506F7765723A091034
:10164000139A2056000043757272656E743A091041
:10165000139C20410000496E7075743A091013A460
:10166000205600005341543A091013A020560000A0
:101670005643433A091013A62056000054583A091D
:101680001013A220560046726F6E743A0910139E12
:10169000205600005655313A091013AA2056000072
:1016A0005655323A091013A820560000454E433AC9
:1016B0000E20201001772F1001782C1001740000EB
:1016C00053572D566572733A0910133C0000426F50
:1016D0006F74566572733A0910133E0048572D56C1
:1016E0006572733A0910134000004352433A0910DF
:1016F0001142000010161C162C16381646165616E7
:10170000641670167C1686169416A016AC16C016B3
:10171000CE16DC16EA16300A411A611A06003C425F
:101720005A423C0000407E00000022464A4A3200F5
:10173000044252522C000C14244E04007452525293
:101740004C001C3252520C004040465860002C5253
:1017500052522C00304A4A4C3800061C641C0600C9
:101760007E5252522C003C42424224007E4242426F
:101770003C007E52525242007E50505040003C424B
:101780004A4A2C007E1010107E0000007E000000EF
:10179000040202027C007E08182442007E0202023B
:1017A00002007E1806187E007E2010087E003C4253
:1017B00042423C007E48484830003C424A443A009D
:1017C0007E48484C3200245252520C0040407E4029
:1017D00040007C0202027C00601806186000700E57
:1017E000700E700042241824420060100E10600039
:1017F00042464A526200042A2A2A1E007E1212120F
:101800000C001C22222210000C1212127E001C2A34
:101810002A2A180000207EA00000102A2A2A3C0054
:10182000FE2020201E000000BE0000000002BC00C0
:101830000000FE04081422000000FC0200003E200C
:101840001E201E003E2020201E001C2222221C00E2
:101850003E2828281000102828283E003E1020206E
:101860002000102A2A2A040000207C2200003C02CA
:1018700002023E00300806083000380638063800FC
:10188000221408142200300A0408300022262A32CA
:10189000220000000429B83D1800B83D0000FFFFF9
:1018A000FFFFFFFFFFFFFFFF00800000F1B66400B5
:1018B000C1140000B95F0000B95F0000B95F00000B
:1018C000C1140000C1140000C1140000010140CC8B
:10640000F4808100813F853004381F0F0081000433
:1064100001070F1F021F3F843F811F040F07010068
:106420008100040F1F3830843004381C0C008100B8
:10643000813F83000701070F1C3830008100813F36
:10644000873081008430813F84308800813F8730ED
:106450008200813F030F0300850003030F3F023FCB
:1064600000820081FF85300470E0C000810003F8E5
:10647000FEFF8AFF03FEF800810081FF0201008415
:1064800000020103020300810081FF0A0E1C78F85C
:10649000DC8E07030100820081FF8660870081FF98
:1064A0008D0081FF8660830081FF0C80E0F83E0F45
:1064B000030F3EF8E080FF02FF00820081C08E00E3
:1064C000818085C0818086000280C086C0028000F5
:1064D000820081C086000280C002C000810089C0A5
:1064E000860081C08D0081C08A0081C083008280C7
:0664F000830081C0810061
:106C00000000000000000000FA00000000E000E0CA
:106C1000000028FE28FE28002454FE544800C4C862
:106C2000102646006C926A040A000010E0C00000C2
:106C300000384482000000824438000024187E1886
:106C4000240010107C10100000010E0C0000101029
:106C5000101010000000060600000408102040007C
:106C60007C8292827C000042FE0200004E92929250
:106C70006200848292B2CC00182848FE0800E4A288
:106C8000A2A29C003C5292928C0082848890E000E8
:106C90006C9292926C0062929294780000002800AC
:106CA000000000022C000000001028448200282868
:106CB0002828280000824428100040809A90600014
:106CC0007C82BA9A72003E4888483E00FE929292B8
:106CD0006C007C8282824400FE8282827C00FE9272
:106CE00092928200FE90909080007C82828ACE00F8
:106CF000FE101010FE000082FE820000040282FCE2
:106D00008000FE1028448200FE0202020200FE40C3
:106D10003840FE00FE201008FE007C8282827C004B
:106D2000FE90909060007C828A847A00FE90989415
:106D30006200649292924C00C080FE80C000FC020F
:106D40000202FC00F8040204F800FC021C02FC0031
:106D5000C6281028C600C0201E20C000869A92B205
:106D6000C20000FE828282004020100804000082DF
:106D70008282FE00204080402000020202020200C7
:106D800000C0E0100000042A2A1E0200FE14222285
:106D90001C001C22222214001C222214FE001C2A89
:106DA0002A2A180000107E904000182525391E0060
:106DB000FE1020201E000022BE020000040202BCC1
:106DC0000000FE08142200000082FE0200003E20A7
:106DD0001E201E003E1020201E001C2222221C000D
:106DE0003F1824241800182424183F003E102020A7
:106DF0001000122A2A2A24002020FC2224003C020F
:106E000002043E003804020438003C020C023C003C
:106E1000221408142200320909093E0022262A32CF
:106E2000220000106C8200000000EE0000000082D2
:106E30006C1000004080402040003C64C4643C0072
:106E40007885858648005C0202045E001C2A2AAA16
:106E50009A0084AAAA9E8200842A2A1E820084AAFA
:106E60002A1E0200042AAA9E020030784A4E4800D8
:106E70009CAAAAAA9A009C2A2A2A9A009CAA2A2A90
:106E80001A000000A23E82000040A2BE4200008024
:106E9000A23E02000F9424940F000F14A4140F00BC
:106EA0003E2AAAA20000042A2A3E2A223E5090FE30
:106EB00092824C9292924C004C1212124C004C5204
:106EC00012120C005C8282845E005C4202041E008E
:106ED00000B90505BE009C2222229C00BC020202D1
:106EE000BC001C262A321C00127E92C266007C8ADC
:106EF00092A27C00FF90946F040003117E90C0006A
:106F0000042A2A9E8200000022BE82000C12125225
:106F10004C001C0202445E00005E50504E00BEB0A9
:106F2000988CBE00649494F4140064949494640067
:106F30000C12B20204001C101010100010101010DF
:106F40001C00F40813355D00F408142C5F000000E9
:106F5000DE00000010285428440044285428100063
:106F60005500AA00550055AA55AA55AAAA55AA55D2
:106F7000AA55000000FF0000080808FF00002828AC
:106F800028FF00000808FF00FF0008080F080F0096
:106F90002828283F00002828EF00FF000000FF00FD
:106FA000FF0028282F203F002828E808F8000808BC
:106FB000F808F800282828F800000808080F000042
:106FC000000000F80808080808F808080808080F72
:106FD0000808000000FF0808080808080808080852
:106FE00008FF0808000000FF28280000FF00FF0835
:106FF0000000F808E82800003F202F282828E8088B
:10700000E82828282F202F280000FF00EF28282814
:10701000282828282828EF00EF28282828E82828CA
:107020000808F808F8082828282F282808080F0832
:107030000F080000F808F808000000F828280000F1
:10704000003F282800000F080F080808FF08FF0865
:10705000282828FF2828080808F800000000000F4A
:107060000808FFFFFFFFFFFF0F0F0F0F0F0FFFFFBE
:10707000FF000000000000FFFFFFF0F0F0F0F0F074
:107080001C22221C22003E54547C28007E4040607A
:107090006000407E407E4000C6AA9282C6001C224C
:1070A000223C2000027E0478040060407E404000C4
:1070B00099A5E7A59900385492543800324E804E75
:1070C00032000C52B2B20C000C121E120C003D46E3
:1070D0005A62BC007C92929200007E8080807E008A
:1070E0005454545454002222FA222200028A52227A
:1070F00002000222528A02000000FF80C000070145
:10710000FF0000001010D6D610106C486C246C00E4
:1071100060F090F0600000001818000000000808FF
:1071200000000C02FF80800000F88080780000984A
:10713000B8E84800003C3C3C3C007C82BAAA827C17
:107C00008827F894A89500916000086100936000AF
:107C10000AE00093600008E00EBF0FEF0DBF00E028
:107C200002B901E001B908EF05B90FEB04B92A9ACE
:107C300003E008B90CE707B900EE0BB90AE30AB98B
:107C40000DEF009364000091C60000E00093C500B2
:107C50000CE00093C40002E00093C00006E0009333
:107C6000C20068E16093C1008130F9F0E0EAF0E021
:107C7000A591B491CC27DD27BE3370F4EE27FF2702
:107C8000A89505910590C00FD01D1197C9F70D2F2C
:107C90000C2B11F40C945200469888270FEF009398
:107CA000390825D0ADD005E501C00FE421D033243B
:107CB000339481F0C0E0D2E0A895BB27AA271197A2
:107CC000B9F31091C00017FFFACF33240091C6001A
:107CD0000B3109F495CF013208F4EACFCC2391F4AB
:107CE0000A3371F409931FEF18832227E5CF0BE1C4
:107CF000A8951091C00015FFFBCF0093C600089512
:107D000006E4D4CF0053E0F30A3028F007500031E6
:107D1000B8F70A30A8F318811F3F19F402950883B9
:107D2000CBCF012B09931FEF1883200F1091010275
:107D30001A5FC11708F221F7222311F700910402FC
:107D4000013048F011F48AD05BCF0230C9F60EEF53
:107D500000933908AACFB0910202A0910302AA0FA2
:107D6000BB1F009139080E3F18F051F60BD09DCF84
:107D7000B01711F415D099CFBF9370D0BF9109F40B
:107D800001D096CFB0933908A89510E8B19FE02DA7
:107D9000F12DC0E0D4E000E8059009920A95E1F7E2
:107DA000D4E0C0910302CF77A5E0B2E000910102D8
:107DB000002321F00D9009920A95E1F70895FFFF45
:107DC000FFFFFFFFFFFFFFFFFFFFFFFFFFFFFFFFC3
:107DD000FFFFFFFFFFFFFFFFFFFFFFFFFFFFFFFFB3
:107DE00001D041E167B760FDFDCF6FB7F894F99915
:107DF000FECF47BFE8956FBF0895FFFFFFFFFFFF6E
:107E0000A0E1B7E209D0A8EEB3E006D0A4E6BB2714
:107E100003D0AAE001D0A1E00FE20395CA1BDB0B5F
:107E2000E0F7CA0FDB1F64CFA895C0E0D4E0A0E85C
:107E300005911991011711F4AA95D1F70895FFFF43
:107E40000200FFFF41E167B760FDFDCF6FB7F89417
:107E5000F999FECF47BFE8956FBF0895A8950091A7
:107E6000390810E8019FE02DF12D0CE7E030F00714
:107E700030F009E601C003E73BDFFF270895D4DFB8
:107E8000D1F3A895E02DF12D43E0AADFA0E4C0E0F6
:107E9000D4E00990199041E0A5DF3296AA95C9F780
:107EA000A895E058F04045E09BDFBEDF11F400E705
:0A7EB000E3CF06E61DDF002308956E
:00000001FF
